{
  "_format": "hh-sol-artifact-1",
  "contractName": "GPXToken",
  "sourceName": "contracts/gpx.sol",
  "abi": [
    {
      "inputs": [],
      "stateMutability": "nonpayable",
      "type": "constructor"
    },
    {
      "inputs": [
        {
          "internalType": "address",
          "name": "spender",
          "type": "address"
        },
        {
          "internalType": "uint256",
          "name": "allowance",
          "type": "uint256"
        },
        {
          "internalType": "uint256",
          "name": "needed",
          "type": "uint256"
        }
      ],
      "name": "ERC20InsufficientAllowance",
      "type": "error"
    },
    {
      "inputs": [
        {
          "internalType": "address",
          "name": "sender",
          "type": "address"
        },
        {
          "internalType": "uint256",
          "name": "balance",
          "type": "uint256"
        },
        {
          "internalType": "uint256",
          "name": "needed",
          "type": "uint256"
        }
      ],
      "name": "ERC20InsufficientBalance",
      "type": "error"
    },
    {
      "inputs": [
        {
          "internalType": "address",
          "name": "approver",
          "type": "address"
        }
      ],
      "name": "ERC20InvalidApprover",
      "type": "error"
    },
    {
      "inputs": [
        {
          "internalType": "address",
          "name": "receiver",
          "type": "address"
        }
      ],
      "name": "ERC20InvalidReceiver",
      "type": "error"
    },
    {
      "inputs": [
        {
          "internalType": "address",
          "name": "sender",
          "type": "address"
        }
      ],
      "name": "ERC20InvalidSender",
      "type": "error"
    },
    {
      "inputs": [
        {
          "internalType": "address",
          "name": "spender",
          "type": "address"
        }
      ],
      "name": "ERC20InvalidSpender",
      "type": "error"
    },
    {
      "inputs": [
        {
          "internalType": "address",
          "name": "owner",
          "type": "address"
        }
      ],
      "name": "OwnableInvalidOwner",
      "type": "error"
    },
    {
      "inputs": [
        {
          "internalType": "address",
          "name": "account",
          "type": "address"
        }
      ],
      "name": "OwnableUnauthorizedAccount",
      "type": "error"
    },
    {
      "anonymous": false,
      "inputs": [
        {
          "indexed": true,
          "internalType": "address",
          "name": "owner",
          "type": "address"
        },
        {
          "indexed": true,
          "internalType": "address",
          "name": "spender",
          "type": "address"
        },
        {
          "indexed": false,
          "internalType": "uint256",
          "name": "value",
          "type": "uint256"
        }
      ],
      "name": "Approval",
      "type": "event"
    },
    {
      "anonymous": false,
      "inputs": [
        {
          "indexed": true,
          "internalType": "address",
          "name": "previousOwner",
          "type": "address"
        },
        {
          "indexed": true,
          "internalType": "address",
          "name": "newOwner",
          "type": "address"
        }
      ],
      "name": "OwnershipTransferred",
      "type": "event"
    },
    {
      "anonymous": false,
      "inputs": [
        {
          "indexed": true,
          "internalType": "address",
          "name": "from",
          "type": "address"
        },
        {
          "indexed": true,
          "internalType": "address",
          "name": "to",
          "type": "address"
        },
        {
          "indexed": false,
          "internalType": "uint256",
          "name": "value",
          "type": "uint256"
        }
      ],
      "name": "Transfer",
      "type": "event"
    },
    {
      "inputs": [
        {
          "internalType": "address",
          "name": "owner",
          "type": "address"
        },
        {
          "internalType": "address",
          "name": "spender",
          "type": "address"
        }
      ],
      "name": "allowance",
      "outputs": [
        {
          "internalType": "uint256",
          "name": "",
          "type": "uint256"
        }
      ],
      "stateMutability": "view",
      "type": "function"
    },
    {
      "inputs": [
        {
          "internalType": "address",
          "name": "spender",
          "type": "address"
        },
        {
          "internalType": "uint256",
          "name": "value",
          "type": "uint256"
        }
      ],
      "name": "approve",
      "outputs": [
        {
          "internalType": "bool",
          "name": "",
          "type": "bool"
        }
      ],
      "stateMutability": "nonpayable",
      "type": "function"
    },
    {
      "inputs": [
        {
          "internalType": "address",
          "name": "account",
          "type": "address"
        }
      ],
      "name": "balanceOf",
      "outputs": [
        {
          "internalType": "uint256",
          "name": "",
          "type": "uint256"
        }
      ],
      "stateMutability": "view",
      "type": "function"
    },
    {
      "inputs": [
        {
          "internalType": "address[]",
          "name": "recipients",
          "type": "address[]"
        },
        {
          "internalType": "uint256[]",
          "name": "amounts",
          "type": "uint256[]"
        }
      ],
      "name": "batchMint",
      "outputs": [],
      "stateMutability": "nonpayable",
      "type": "function"
    },
    {
      "inputs": [
        {
          "internalType": "uint256",
          "name": "value",
          "type": "uint256"
        }
      ],
      "name": "burn",
      "outputs": [],
      "stateMutability": "nonpayable",
      "type": "function"
    },
    {
      "inputs": [
        {
          "internalType": "address",
          "name": "account",
          "type": "address"
        },
        {
          "internalType": "uint256",
          "name": "amount",
          "type": "uint256"
        }
      ],
      "name": "burnFrom",
      "outputs": [],
      "stateMutability": "nonpayable",
      "type": "function"
    },
    {
      "inputs": [],
      "name": "decimals",
      "outputs": [
        {
          "internalType": "uint8",
          "name": "",
          "type": "uint8"
        }
      ],
      "stateMutability": "view",
      "type": "function"
    },
    {
      "inputs": [
        {
          "internalType": "address",
          "name": "to",
          "type": "address"
        },
        {
          "internalType": "uint256",
          "name": "amount",
          "type": "uint256"
        }
      ],
      "name": "mint",
      "outputs": [],
      "stateMutability": "nonpayable",
      "type": "function"
    },
    {
      "inputs": [],
      "name": "name",
      "outputs": [
        {
          "internalType": "string",
          "name": "",
          "type": "string"
        }
      ],
      "stateMutability": "view",
      "type": "function"
    },
    {
      "inputs": [],
      "name": "owner",
      "outputs": [
        {
          "internalType": "address",
          "name": "",
          "type": "address"
        }
      ],
      "stateMutability": "view",
      "type": "function"
    },
    {
      "inputs": [],
      "name": "renounceOwnership",
      "outputs": [],
      "stateMutability": "nonpayable",
      "type": "function"
    },
    {
      "inputs": [],
      "name": "symbol",
      "outputs": [
        {
          "internalType": "string",
          "name": "",
          "type": "string"
        }
      ],
      "stateMutability": "view",
      "type": "function"
    },
    {
      "inputs": [],
      "name": "totalSupply",
      "outputs": [
        {
          "internalType": "uint256",
          "name": "",
          "type": "uint256"
        }
      ],
      "stateMutability": "view",
      "type": "function"
    },
    {
      "inputs": [
        {
          "internalType": "address",
          "name": "to",
          "type": "address"
        },
        {
          "internalType": "uint256",
          "name": "value",
          "type": "uint256"
        }
      ],
      "name": "transfer",
      "outputs": [
        {
          "internalType": "bool",
          "name": "",
          "type": "bool"
        }
      ],
      "stateMutability": "nonpayable",
      "type": "function"
    },
    {
      "inputs": [
        {
          "internalType": "address",
          "name": "from",
          "type": "address"
        },
        {
          "internalType": "address",
          "name": "to",
          "type": "address"
        },
        {
          "internalType": "uint256",
          "name": "value",
          "type": "uint256"
        }
      ],
      "name": "transferFrom",
      "outputs": [
        {
          "internalType": "bool",
          "name": "",
          "type": "bool"
        }
      ],
      "stateMutability": "nonpayable",
      "type": "function"
    },
    {
      "inputs": [
        {
          "internalType": "address",
          "name": "newOwner",
          "type": "address"
        }
      ],
      "name": "transferOwnership",
      "outputs": [],
      "stateMutability": "nonpayable",
      "type": "function"
    }
  ],
  "bytecode": "0x608034620003de576040906001600160401b039080830182811182821017620002de578352600c81526020906b283932b234bc102a37b5b2b760a11b8282015283519284840184811082821117620002de5785526003808552620a088b60eb1b848601528251828111620002de578154906001948583811c93168015620003d3575b87841014620003bd578190601f9384811162000367575b5087908483116001146200030057600092620002f4575b505060001982851b1c191690851b1782555b8551928311620002de5760049586548581811c91168015620002d3575b87821014620002be5782811162000273575b50859184116001146200020857938394918492600095620001fc575b50501b92600019911b1c19161782555b3315620001e55760058054336001600160a01b0319821681179092556001600160a01b03167f8be0079c531659141344cd1fd0a4f28419497f9722a3daafe3b4186f6b6457e0600080a36002546b033b2e3c9fd0803ce800000092838201809211620001d057506000917fddf252ad1be2c89b69c2b068fc378daa952ba7f163c4a11628f55a4df523b3ef9160025533835282815284832084815401905584519384523393a351610bc09081620003e48239f35b601190634e487b7160e01b6000525260246000fd5b5060006024925191631e4fbdf760e01b8352820152fd5b0151935038806200010c565b9190601f198416928760005284876000209460005b89898383106200025b575050501062000240575b50505050811b0182556200011c565b01519060f884600019921b161c191690553880808062000231565b8686015189559097019694850194889350016200021d565b87600052866000208380870160051c820192898810620002b4575b0160051c019086905b828110620002a7575050620000f0565b6000815501869062000297565b925081926200028e565b602288634e487b7160e01b6000525260246000fd5b90607f1690620000de565b634e487b7160e01b600052604160045260246000fd5b015190503880620000af565b90879350601f1983169186600052896000209260005b8b82821062000350575050841162000337575b505050811b018255620000c1565b015160001983871b60f8161c1916905538808062000329565b8385015186558b9790950194938401930162000316565b90915084600052876000208480850160051c8201928a8610620003b3575b918991869594930160051c01915b828110620003a357505062000098565b6000815585945089910162000393565b9250819262000385565b634e487b7160e01b600052602260045260246000fd5b92607f169262000081565b600080fdfe6080604081815260048036101561001557600080fd5b600092833560e01c90816306fdde031461074457508063095ea7b31461069b57806318160ddd1461067c57806323b872dd14610589578063313ce5671461056d57806340c10f191461052c57806342966c681461050e57806368573107146103f357806370a08231146103bc578063715018a61461035f57806379cc67901461032c5780638da5cb5b1461030357806395d89b41146101e3578063a9059cbb146101b2578063dd62ed3e146101655763f2fde38b146100d357600080fd5b34610161576020366003190112610161576100ec610882565b906100f56108e4565b6001600160a01b0391821692831561014b575050600554826bffffffffffffffffffffffff60a01b821617600555167f8be0079c531659141344cd1fd0a4f28419497f9722a3daafe3b4186f6b6457e08380a380f35b51631e4fbdf760e01b8152908101849052602490fd5b8280fd5b5050346101ae57806003193601126101ae5780602092610183610882565b61018b61089d565b6001600160a01b0391821683526001865283832091168252845220549051908152f35b5080fd5b5050346101ae57806003193601126101ae576020906101dc6101d2610882565b6024359033610910565b5160018152f35b509190346101ae57816003193601126101ae57805190828454600181811c908083169283156102f9575b60209384841081146102e6578388529081156102ca5750600114610275575b505050829003601f01601f191682019267ffffffffffffffff841183851017610262575082918261025e925282610839565b0390f35b634e487b7160e01b815260418552602490fd5b8787529192508591837f8a35acfbc15ff81a39ae7d344fd709f28e8600b4aa8c65c6b64bfe7fe36bd19b5b8385106102b6575050505083010138808061022c565b8054888601830152930192849082016102a0565b60ff1916878501525050151560051b840101905038808061022c565b634e487b7160e01b895260228a52602489fd5b91607f169161020d565b5050346101ae57816003193601126101ae5760055490516001600160a01b039091168152602090f35b5050346101ae5736600319011261035c57610359610348610882565b6103506108e4565b602435906109ee565b80f35b80fd5b833461035c578060031936011261035c576103786108e4565b600580546001600160a01b0319811690915581906001600160a01b03167f8be0079c531659141344cd1fd0a4f28419497f9722a3daafe3b4186f6b6457e08280a380f35b5050346101ae5760203660031901126101ae5760209181906001600160a01b036103e4610882565b16815280845220549051908152f35b50903461016157806003193601126101615767ffffffffffffffff91803583811161050a5761042590369083016108b3565b60249391939485359081116105065761044190369085016108b3565b91909261044c6108e4565b8282036104cd5750865b818110610461578780f35b6104876001600160a01b0361047f61047a84868b610b50565b610b76565b161515610a8d565b6104aa61049861047a83858a610b50565b6104a3838688610b50565b3590610ad9565b60001981146104bb57600101610456565b634e487b7160e01b8852601185528688fd5b5162461bcd60e51b815260208186015260158188015274082e4e4c2f240d8cadccee8d040dad2e6dac2e8c6d605b1b6044820152606490fd5b8680fd5b8480fd5b8382346101ae5760203660031901126101ae576103599035336109ee565b5050346101ae5736600319011261035c57610359610548610882565b6105506108e4565b6105646001600160a01b0382161515610a8d565b60243590610ad9565b5050346101ae57816003193601126101ae576020905160128152f35b50823461035c57606036600319011261035c576105a4610882565b6105ac61089d565b916044359360018060a01b0383168083526001602052868320338452602052868320549160001983106105e8575b6020886101dc898989610910565b868310610650578115610639573315610622575082526001602090815286832033845281529186902090859003905582906101dc876105da565b8751634a1406b160e11b8152908101849052602490fd5b875163e602df0560e01b8152908101849052602490fd5b8751637dc7a0d960e11b8152339181019182526020820193909352604081018790528291506060010390fd5b5050346101ae57816003193601126101ae576020906002549051908152f35b50346101615781600319360112610161576106b4610882565b60243590331561072d576001600160a01b031691821561071657508083602095338152600187528181208582528752205582519081527f8c5be1e5ebec7d5bd14f71427d1e84f3dd0314c0f7b2291e5b200ac8c7c3b925843392a35160018152f35b8351634a1406b160e11b8152908101859052602490fd5b835163e602df0560e01b8152808401869052602490fd5b849150833461016157826003193601126101615782600354600181811c9080831692831561082f575b60209384841081146102e65783885290811561081357506001146107bd57505050829003601f01601f191682019267ffffffffffffffff841183851017610262575082918261025e925282610839565b600387529192508591837fc2575a0e9e593c00f959f8c92f12db2869c3395a3b0502d05e2516446f71f85b5b8385106107ff575050505083010185808061022c565b8054888601830152930192849082016107e9565b60ff1916878501525050151560051b840101905085808061022c565b91607f169161076d565b6020808252825181830181905290939260005b82811061086e57505060409293506000838284010152601f8019910116010190565b81810186015184820160400152850161084c565b600435906001600160a01b038216820361089857565b600080fd5b602435906001600160a01b038216820361089857565b9181601f840112156108985782359167ffffffffffffffff8311610898576020808501948460051b01011161089857565b6005546001600160a01b031633036108f857565b60405163118cdaa760e01b8152336004820152602490fd5b916001600160a01b038084169283156109d557169283156109bc576000908382528160205260408220549083821061098a575091604082827fddf252ad1be2c89b69c2b068fc378daa952ba7f163c4a11628f55a4df523b3ef958760209652828652038282205586815220818154019055604051908152a3565b60405163391434e360e21b81526001600160a01b03919091166004820152602481019190915260448101839052606490fd5b60405163ec442f0560e01b815260006004820152602490fd5b604051634b637e8f60e11b815260006004820152602490fd5b906001600160a01b0382169081156109d55760009282845283602052604084205490828210610a5b5750817fddf252ad1be2c89b69c2b068fc378daa952ba7f163c4a11628f55a4df523b3ef926020928587528684520360408620558060025403600255604051908152a3565b60405163391434e360e21b81526001600160a01b03919091166004820152602481019190915260448101829052606490fd5b15610a9457565b60405162461bcd60e51b815260206004820152601b60248201527f43616e6e6f74206d696e7420746f207a65726f206164647265737300000000006044820152606490fd5b6001600160a01b03169081156109bc5760025490808201809211610b3a5760207fddf252ad1be2c89b69c2b068fc378daa952ba7f163c4a11628f55a4df523b3ef9160009360025584845283825260408420818154019055604051908152a3565b634e487b7160e01b600052601160045260246000fd5b9190811015610b605760051b0190565b634e487b7160e01b600052603260045260246000fd5b356001600160a01b0381168103610898579056fea2646970667358221220c8210e32cd2bb0f0fbd8f01e04fe985315a78e94d1e9cb5d00f54178a9c85ed364736f6c63430008140033",
  "linkReferences": {},
  "deployedLinkReferences": {}
}