{
  "_format": "hh-sol-artifact-1",
  "contractName": "BNBMarketMarketplace",
  "sourceName": "contracts/BNBMarketMarketplace.sol",
  "abi": [
    {
      "inputs": [
        {
          "internalType": "address",
          "name": "_pdxToken",
          "type": "address"
        },
        {
          "internalType": "address",
          "name": "_predictionMarket",
          "type": "address"
        },
        {
          "internalType": "uint32",
          "name": "_marketplaceFeeBps",
          "type": "uint32"
        }
      ],
      "stateMutability": "nonpayable",
      "type": "constructor"
    },
    {
      "anonymous": false,
      "inputs": [
        {
          "indexed": true,
          "internalType": "address",
          "name": "owner",
          "type": "address"
        },
        {
          "indexed": false,
          "internalType": "uint256",
          "name": "amount",
          "type": "uint256"
        },
        {
          "indexed": false,
          "internalType": "uint256",
          "name": "timestamp",
          "type": "uint256"
        }
      ],
      "name": "FeesWithdrawn",
      "type": "event"
    },
    {
      "anonymous": false,
      "inputs": [
        {
          "indexed": true,
          "internalType": "uint256",
          "name": "listingId",
          "type": "uint256"
        },
        {
          "indexed": true,
          "internalType": "uint256",
          "name": "marketId",
          "type": "uint256"
        },
        {
          "indexed": true,
          "internalType": "address",
          "name": "seller",
          "type": "address"
        },
        {
          "indexed": false,
          "internalType": "uint256",
          "name": "timestamp",
          "type": "uint256"
        }
      ],
      "name": "ListingCancelled",
      "type": "event"
    },
    {
      "anonymous": false,
      "inputs": [
        {
          "indexed": true,
          "internalType": "uint256",
          "name": "listingId",
          "type": "uint256"
        },
        {
          "indexed": true,
          "internalType": "uint256",
          "name": "marketId",
          "type": "uint256"
        },
        {
          "indexed": false,
          "internalType": "uint256",
          "name": "oldPrice",
          "type": "uint256"
        },
        {
          "indexed": false,
          "internalType": "uint256",
          "name": "newPrice",
          "type": "uint256"
        },
        {
          "indexed": false,
          "internalType": "uint256",
          "name": "timestamp",
          "type": "uint256"
        }
      ],
      "name": "ListingPriceUpdated",
      "type": "event"
    },
    {
      "anonymous": false,
      "inputs": [
        {
          "indexed": true,
          "internalType": "uint256",
          "name": "listingId",
          "type": "uint256"
        },
        {
          "indexed": true,
          "internalType": "uint256",
          "name": "marketId",
          "type": "uint256"
        },
        {
          "indexed": true,
          "internalType": "address",
          "name": "seller",
          "type": "address"
        },
        {
          "indexed": false,
          "internalType": "uint256",
          "name": "price",
          "type": "uint256"
        },
        {
          "indexed": false,
          "internalType": "uint256",
          "name": "timestamp",
          "type": "uint256"
        }
      ],
      "name": "MarketListed",
      "type": "event"
    },
    {
      "anonymous": false,
      "inputs": [
        {
          "indexed": true,
          "internalType": "uint256",
          "name": "listingId",
          "type": "uint256"
        },
        {
          "indexed": true,
          "internalType": "uint256",
          "name": "marketId",
          "type": "uint256"
        },
        {
          "indexed": true,
          "internalType": "address",
          "name": "seller",
          "type": "address"
        },
        {
          "indexed": false,
          "internalType": "address",
          "name": "buyer",
          "type": "address"
        },
        {
          "indexed": false,
          "internalType": "uint256",
          "name": "price",
          "type": "uint256"
        },
        {
          "indexed": false,
          "internalType": "uint256",
          "name": "timestamp",
          "type": "uint256"
        }
      ],
      "name": "MarketSold",
      "type": "event"
    },
    {
      "anonymous": false,
      "inputs": [
        {
          "indexed": true,
          "internalType": "uint256",
          "name": "marketId",
          "type": "uint256"
        },
        {
          "indexed": true,
          "internalType": "address",
          "name": "seller",
          "type": "address"
        },
        {
          "indexed": true,
          "internalType": "address",
          "name": "buyer",
          "type": "address"
        },
        {
          "indexed": false,
          "internalType": "uint256",
          "name": "price",
          "type": "uint256"
        },
        {
          "indexed": false,
          "internalType": "uint256",
          "name": "timestamp",
          "type": "uint256"
        }
      ],
      "name": "OfferAccepted",
      "type": "event"
    },
    {
      "anonymous": false,
      "inputs": [
        {
          "indexed": true,
          "internalType": "uint256",
          "name": "marketId",
          "type": "uint256"
        },
        {
          "indexed": true,
          "internalType": "address",
          "name": "buyer",
          "type": "address"
        },
        {
          "indexed": false,
          "internalType": "uint256",
          "name": "timestamp",
          "type": "uint256"
        }
      ],
      "name": "OfferCancelled",
      "type": "event"
    },
    {
      "anonymous": false,
      "inputs": [
        {
          "indexed": true,
          "internalType": "uint256",
          "name": "marketId",
          "type": "uint256"
        },
        {
          "indexed": true,
          "internalType": "address",
          "name": "buyer",
          "type": "address"
        },
        {
          "indexed": false,
          "internalType": "uint256",
          "name": "offerPrice",
          "type": "uint256"
        },
        {
          "indexed": false,
          "internalType": "uint256",
          "name": "timestamp",
          "type": "uint256"
        }
      ],
      "name": "OfferCreated",
      "type": "event"
    },
    {
      "inputs": [],
      "name": "accumulatedFees",
      "outputs": [
        {
          "internalType": "uint256",
          "name": "",
          "type": "uint256"
        }
      ],
      "stateMutability": "view",
      "type": "function"
    },
    {
      "inputs": [
        {
          "internalType": "uint256",
          "name": "marketId",
          "type": "uint256"
        }
      ],
      "name": "buyMarket",
      "outputs": [],
      "stateMutability": "nonpayable",
      "type": "function"
    },
    {
      "inputs": [
        {
          "internalType": "uint256",
          "name": "marketId",
          "type": "uint256"
        }
      ],
      "name": "cancelListing",
      "outputs": [],
      "stateMutability": "nonpayable",
      "type": "function"
    },
    {
      "inputs": [
        {
          "internalType": "uint256",
          "name": "listingId",
          "type": "uint256"
        }
      ],
      "name": "getListing",
      "outputs": [
        {
          "components": [
            {
              "internalType": "address",
              "name": "seller",
              "type": "address"
            },
            {
              "internalType": "uint256",
              "name": "marketId",
              "type": "uint256"
            },
            {
              "internalType": "uint256",
              "name": "price",
              "type": "uint256"
            },
            {
              "internalType": "uint256",
              "name": "listedAt",
              "type": "uint256"
            },
            {
              "internalType": "bool",
              "name": "isActive",
              "type": "bool"
            }
          ],
          "internalType": "struct BNBMarketMarketplace.MarketListing",
          "name": "",
          "type": "tuple"
        }
      ],
      "stateMutability": "view",
      "type": "function"
    },
    {
      "inputs": [
        {
          "internalType": "uint256",
          "name": "marketId",
          "type": "uint256"
        }
      ],
      "name": "getListingByMarket",
      "outputs": [
        {
          "internalType": "uint256",
          "name": "",
          "type": "uint256"
        }
      ],
      "stateMutability": "view",
      "type": "function"
    },
    {
      "inputs": [
        {
          "internalType": "uint256",
          "name": "marketId",
          "type": "uint256"
        }
      ],
      "name": "isMarketListed",
      "outputs": [
        {
          "internalType": "bool",
          "name": "",
          "type": "bool"
        }
      ],
      "stateMutability": "view",
      "type": "function"
    },
    {
      "inputs": [
        {
          "internalType": "uint256",
          "name": "marketId",
          "type": "uint256"
        },
        {
          "internalType": "uint256",
          "name": "price",
          "type": "uint256"
        }
      ],
      "name": "listMarket",
      "outputs": [
        {
          "internalType": "uint256",
          "name": "",
          "type": "uint256"
        }
      ],
      "stateMutability": "nonpayable",
      "type": "function"
    },
    {
      "inputs": [
        {
          "internalType": "uint256",
          "name": "",
          "type": "uint256"
        }
      ],
      "name": "listings",
      "outputs": [
        {
          "internalType": "address",
          "name": "seller",
          "type": "address"
        },
        {
          "internalType": "uint256",
          "name": "marketId",
          "type": "uint256"
        },
        {
          "internalType": "uint256",
          "name": "price",
          "type": "uint256"
        },
        {
          "internalType": "uint256",
          "name": "listedAt",
          "type": "uint256"
        },
        {
          "internalType": "bool",
          "name": "isActive",
          "type": "bool"
        }
      ],
      "stateMutability": "view",
      "type": "function"
    },
    {
      "inputs": [
        {
          "internalType": "uint256",
          "name": "",
          "type": "uint256"
        }
      ],
      "name": "marketToListing",
      "outputs": [
        {
          "internalType": "uint256",
          "name": "",
          "type": "uint256"
        }
      ],
      "stateMutability": "view",
      "type": "function"
    },
    {
      "inputs": [],
      "name": "marketplaceFeeBps",
      "outputs": [
        {
          "internalType": "uint32",
          "name": "",
          "type": "uint32"
        }
      ],
      "stateMutability": "view",
      "type": "function"
    },
    {
      "inputs": [],
      "name": "nextListingId",
      "outputs": [
        {
          "internalType": "uint256",
          "name": "",
          "type": "uint256"
        }
      ],
      "stateMutability": "view",
      "type": "function"
    },
    {
      "inputs": [
        {
          "internalType": "uint256",
          "name": "",
          "type": "uint256"
        },
        {
          "internalType": "address",
          "name": "",
          "type": "address"
        }
      ],
      "name": "offers",
      "outputs": [
        {
          "internalType": "address",
          "name": "buyer",
          "type": "address"
        },
        {
          "internalType": "uint256",
          "name": "offerPrice",
          "type": "uint256"
        },
        {
          "internalType": "uint256",
          "name": "offeredAt",
          "type": "uint256"
        },
        {
          "internalType": "bool",
          "name": "isActive",
          "type": "bool"
        }
      ],
      "stateMutability": "view",
      "type": "function"
    },
    {
      "inputs": [],
      "name": "owner",
      "outputs": [
        {
          "internalType": "address",
          "name": "",
          "type": "address"
        }
      ],
      "stateMutability": "view",
      "type": "function"
    },
    {
      "inputs": [],
      "name": "pdxToken",
      "outputs": [
        {
          "internalType": "address",
          "name": "",
          "type": "address"
        }
      ],
      "stateMutability": "view",
      "type": "function"
    },
    {
      "inputs": [],
      "name": "predictionMarket",
      "outputs": [
        {
          "internalType": "address",
          "name": "",
          "type": "address"
        }
      ],
      "stateMutability": "view",
      "type": "function"
    },
    {
      "inputs": [
        {
          "internalType": "uint32",
          "name": "_marketplaceFeeBps",
          "type": "uint32"
        }
      ],
      "name": "setMarketplaceFee",
      "outputs": [],
      "stateMutability": "nonpayable",
      "type": "function"
    },
    {
      "inputs": [
        {
          "internalType": "address",
          "name": "_newOwner",
          "type": "address"
        }
      ],
      "name": "transferOwnership",
      "outputs": [],
      "stateMutability": "nonpayable",
      "type": "function"
    },
    {
      "inputs": [
        {
          "internalType": "uint256",
          "name": "marketId",
          "type": "uint256"
        },
        {
          "internalType": "uint256",
          "name": "newPrice",
          "type": "uint256"
        }
      ],
      "name": "updatePrice",
      "outputs": [],
      "stateMutability": "nonpayable",
      "type": "function"
    },
    {
      "inputs": [],
      "name": "withdrawFees",
      "outputs": [],
      "stateMutability": "nonpayable",
      "type": "function"
    }
  ],
  "bytecode": "0x60c0346101b157601f6113c638819003918201601f191683019291906001600160401b038411838510176101b65781606092849260409687528339810103126101b15761004b816101cc565b9082610059602083016101cc565b9101519163ffffffff83168084036101b15760018080556006556001600160a01b038281161561017957831615610135576103e8106101025760805260a0908152600080546001600160c01b0319163363ffffffff60a01b1916179290911b63ffffffff60a01b16919091179055516111e590816101e18239608051818181610212015281816104bd0152610917015260a051818181610174015281816105fb0152610b8e0152f35b835162461bcd60e51b815260206004820152600c60248201526b0cccaca40e8dede40d0d2ced60a31b6044820152606490fd5b845162461bcd60e51b815260206004820152601960248201527f696e76616c69642070726564696374696f6e206d61726b6574000000000000006044820152606490fd5b855162461bcd60e51b815260206004820152601160248201527034b73b30b634b21028222c103a37b5b2b760791b6044820152606490fd5b600080fd5b634e487b7160e01b600052604160045260246000fd5b51906001600160a01b03821682036101b15756fe60406080815260048036101561001457600080fd5b600091823560e01c806301d8e33c14610b2a578063107a274a14610a7a57806317e7d9e014610720578063305a67a8146109da578063476343ee146108a25780635327aa6a14610808578063587f5ed7146107e957806382367b2d1461074857806384624a63146107205780638da5cb5b146106f8578063aaccf1ec146106d9578063d3929c8a146106b3578063d9ce4b7014610687578063de74e57b1461062a578063def114b6146105e6578063ebdfbce514610577578063f2fde38b146104f0578063f668da9f146104a85763f90852c7146100f157600080fd5b346104a4576020908160031936011261036957823591610115600160065414610dae565b6002600655828552600381528185205491610131831515610ffe565b828652600282528086208581019061014c60ff835416611037565b80546001600160a01b0392908316331461046957835163b1283e7760e01b81528089018890527f00000000000000000000000000000000000000000000000000000000000000008416986024918b8184818e5afa908c821561045e579160ff91836101c09492610429575b50501615610fc0565b60028401549963ffffffff8c5460a01c16808c02908c8204148c15171561036d576127109004808c038c81116104175788516323b872dd60e01b815233858201523086820152604481018e90528e91907f00000000000000000000000000000000000000000000000000000000000000008a16908c8160648187865af190811561040d579161025c61027c94928f9487916103f0575b506110c9565b8c858d8d5416915180968195829463a9059cbb60e01b84528d840161110b565b03925af19182156103e557916103b8575b501561037f5760055490810180911161036d576005558b929190803b1561036957839060448c8a519687938492630f9f830360e31b84528784015233888401525af1801561035f57610321575b5050509160609391600080516020611190833981519152959360ff198154169055878a526003845289838120555416968151923384528301524290820152a4600160065580f35b929a926001600160401b03831161034e5750508452978160008051602061119083398151915260606102da565b634e487b7160e01b84526041905282fd5b87513d8e823e3d90fd5b8380fd5b634e487b7160e01b8d5260118352838dfd5b875162461bcd60e51b81528084018a9052601481860152731cd95b1b195c881c185e5bdd5d0819985a5b195960621b6044820152606490fd5b6103d891508a3d8c116103de575b6103d08183610e54565b8101906110b1565b3861028d565b503d6103c6565b8a51903d90823e3d90fd5b6104079150853d87116103de576103d08183610e54565b38610256565b8c513d86823e3d90fd5b634e487b7160e01b8e5260118452848efd5b61044592503d8091833e61043d8183610e54565b810190610e99565b505050505050505050505050505092505050388e6101b7565b8851903d90823e3d90fd5b835162461bcd60e51b8152808901869052601560248201527418d85b9b9bdd08189d5e481bdddb881b585c9ad95d605a1b6044820152606490fd5b8280fd5b8382346104ec57816003193601126104ec57517f00000000000000000000000000000000000000000000000000000000000000006001600160a01b03168152602090f35b5080fd5b50346104a45760203660031901126104a4576001600160a01b038235818116939192908490036105735761052985549384163314611157565b83156105415750506001600160a01b03191617815580f35b906020606492519162461bcd60e51b8352820152600c60248201526b7a65726f206164647265737360a01b6044820152fd5b8480fd5b50346104a457806003193601126104a4576001600160a01b03916024358381169190829003610573579382918560809635835260205282822090825260205220918254169160018101549160ff6003600284015493015416928151948552602085015283015215156060820152f35b8382346104ec57816003193601126104ec57517f00000000000000000000000000000000000000000000000000000000000000006001600160a01b03168152602090f35b50346104a45760203660031901126104a4578060a09383358152600260205220600180851b038154169260018201549260ff6002840154926003850154940154169381519586526020860152840152606083015215156080820152f35b5082346106b05760203660031901126106b057506106a760209235611126565b90519015158152f35b80fd5b8382346104ec57816003193601126104ec5763ffffffff6020925460a01c169051908152f35b8382346104ec57816003193601126104ec576020906001549051908152f35b8382346104ec57816003193601126104ec57905490516001600160a01b039091168152602090f35b5090346104a45760203660031901126104a45760209282913581526003845220549051908152f35b5090346104a4577f5f476f8f36556537e6f63bd4f6892b8531d2adefb8a5d57ca336948e45314249606061077b36610d93565b9094610788821515610de7565b8587526003602052600281882054956107a2871515610ffe565b868952816020526107bb60ff848b209283015416611037565b6107cf60018060a01b038254163314611078565b01918083549355815192835260208301524290820152a380f35b8382346104ec57816003193601126104ec576020906005549051908152f35b5090346104a45760203660031901126104a45780359063ffffffff821692838303610573578454936103e890610848336001600160a01b03881614611157565b1161087057505063ffffffff60a01b1990911660a09190911b63ffffffff60a01b1617815580f35b906020606492519162461bcd60e51b8352820152600c60248201526b0cccaca40e8dede40d0d2ced60a31b6044820152fd5b509190346104ec57816003193601126104ec5781546001600160a01b0390811693906108cf338614611157565b6108dd600160065414610dae565b60026006556005549283156109ad57849560209185966005556109118551978893849363a9059cbb60e01b8552840161110b565b038188857f0000000000000000000000000000000000000000000000000000000000000000165af19384156109a3577fdeb5099d7943aa2b4c1142e5d53d2f7636aa8f7bd130ec79816f151572bcdf45939461097391879161098b57506110c9565b845416928151908152426020820152a2600160065580f35b610407915060203d81116103de576103d08183610e54565b82513d87823e3d90fd5b606490602084519162461bcd60e51b835282015260076024820152666e6f206665657360c81b6044820152fd5b50346104a45760203660031901126104a45781359081845260036020528084205492610a07841515610ffe565b838552600260205281852090810190610a39825491610a2860ff8416611037565b546001600160a01b03163314611078565b60ff191690558184526003602052838181205551914283527f45bce92c29afbf5da87a8751e94f7f3a15c0a8760b994a68e644a0094d691ec560203394a480f35b50346104a45760203660031901126104a457808360a09460808351610a9e81610e23565b8281528260208201528285820152826060820152015283358152600260205220815191610aca83610e23565b600180861b0382541693848452600183015460208501908152608060ff6002860154938588019485526003870154966060890197885201541695019415158552825195865251602086015251908401525160608301525115156080820152f35b50346104a457610b3936610d93565b600191610b498360065414610dae565b6002600655610b59821515610de7565b8086526020956003875284812054610d5f57845163b1283e7760e01b81528681018390526001600160a01b03969082816024817f00000000000000000000000000000000000000000000000000000000000000008c165afa908115610d5557889084908593610d25575b50168015610cea573303610cb25760ff610bde911615610fc0565b8454966000198814610c9f5791858792899482860183558b855191610c0283610e23565b338352818301898152878401918b835260026060860194428652608087019889528b8a525288882094511660018060a01b0319855416178455518b840155516002830155516003820155019051151560ff8019835416911617905583815260038952205583519182524286830152847f6d4c1ae2bfc8f796af2979fb8be06ffb70bfb3c962c7ba72feee0df41655b2fa853394a460065551908152f35b634e487b7160e01b835260118252602483fd5b865162461bcd60e51b81528083018a905260126024820152713737ba1036b0b935b2ba1031b932b0ba37b960711b6044820152606490fd5b875162461bcd60e51b81528084018b905260156024820152741b585c9ad95d08191bd95cc81b9bdd08195e1a5cdd605a1b6044820152606490fd5b9050610d3c9192503d8086833e61043d8183610e54565b5050505050505050505050505050939291505038610bc3565b87513d85823e3d90fd5b845162461bcd60e51b8152808701889052600e60248201526d185b1c9958591e481b1a5cdd195960921b6044820152606490fd5b6040906003190112610da9576004359060243590565b600080fd5b15610db557565b60405162461bcd60e51b815260206004820152600a6024820152697265656e7472616e637960b01b6044820152606490fd5b15610dee57565b60405162461bcd60e51b815260206004820152600d60248201526c696e76616c696420707269636560981b6044820152606490fd5b60a081019081106001600160401b03821117610e3e57604052565b634e487b7160e01b600052604160045260246000fd5b601f909101601f19168101906001600160401b03821190821017610e3e57604052565b51906001600160a01b0382168203610da957565b519060ff82168203610da957565b91909161024081840312610da957610eb081610e77565b6020828101519194916001600160401b0390818111610da957840183601f82011215610da9578051918211610e3e5760405193610ef6601f8401601f1916850186610e54565b828552838383010111610da95760005b828110610fad575050906000918301015291604082015191610f2a60608201610e8b565b91610f3760808301610e8b565b91610f4460a08201610e77565b91610f5160c08301610e77565b9160e0810151916101008201519161012081015191610140820151916101608101519161018082015191610f886101a08201610e77565b916101c0820151916101e081015191610faa6102206102008401519301610e77565b90565b8181018401518582018501528301610f06565b15610fc757565b60405162461bcd60e51b815260206004820152600f60248201526e36b0b935b2ba103737ba1037b832b760891b6044820152606490fd5b1561100557565b60405162461bcd60e51b815260206004820152600a6024820152691b9bdd081b1a5cdd195960b21b6044820152606490fd5b1561103e57565b60405162461bcd60e51b81526020600482015260126024820152716c697374696e67206e6f742061637469766560701b6044820152606490fd5b1561107f57565b60405162461bcd60e51b815260206004820152600a6024820152693737ba1039b2b63632b960b11b6044820152606490fd5b90816020910312610da957518015158103610da95790565b156110d057565b60405162461bcd60e51b8152602060048201526013602482015272141116081d1c985b9cd9995c8819985a5b1959606a1b6044820152606490fd5b6001600160a01b039091168152602081019190915260400190565b6000526003602052604060002054801561115157600052600260205260ff6004604060002001541690565b50600090565b1561115e57565b60405162461bcd60e51b81526020600482015260096024820152683737ba1037bbb732b960b91b6044820152606490fdfe58f7419dbc441a81cef691a14fa346bc4b115ccf2bcf51bfbbda25f3d31c67c3a2646970667358221220cff213e9a3da8252ea9a2e04214ce2c33d9164baca65b778852759eb3aeaa76464736f6c63430008140033",
  "linkReferences": {},
  "deployedLinkReferences": {}
}